{
  "contractName": "Battleship",
  "abi": [
    {
      "constant": false,
      "inputs": [],
      "name": "signalReset",
      "outputs": [],
      "payable": false,
      "stateMutability": "nonpayable",
      "type": "function"
    },
    {
      "constant": true,
      "inputs": [],
      "name": "getPlayerTurn",
      "outputs": [
        {
          "name": "",
          "type": "address"
        }
      ],
      "payable": false,
      "stateMutability": "view",
      "type": "function"
    },
    {
      "constant": false,
      "inputs": [
        {
          "name": "cell",
          "type": "uint8"
        },
        {
          "name": "nonce",
          "type": "bytes32"
        },
        {
          "name": "proof",
          "type": "bytes"
        }
      ],
      "name": "play",
      "outputs": [
        {
          "name": "",
          "type": "bool"
        }
      ],
      "payable": false,
      "stateMutability": "nonpayable",
      "type": "function"
    },
    {
      "constant": false,
      "inputs": [
        {
          "name": "_cc",
          "type": "bytes32"
        },
        {
          "name": "_fleet",
          "type": "bytes"
        },
        {
          "name": "_f",
          "type": "bytes32[17]"
        }
      ],
      "name": "initPlayer",
      "outputs": [],
      "payable": true,
      "stateMutability": "payable",
      "type": "function"
    },
    {
      "constant": false,
      "inputs": [
        {
          "name": "commitment",
          "type": "bytes32"
        },
        {
          "name": "cell",
          "type": "uint8"
        }
      ],
      "name": "isHit",
      "outputs": [
        {
          "name": "",
          "type": "bool"
        },
        {
          "name": "",
          "type": "uint256"
        }
      ],
      "payable": false,
      "stateMutability": "nonpayable",
      "type": "function"
    },
    {
      "anonymous": false,
      "inputs": [
        {
          "indexed": false,
          "name": "one",
          "type": "bytes32"
        },
        {
          "indexed": false,
          "name": "two",
          "type": "bytes32"
        },
        {
          "indexed": false,
          "name": "three",
          "type": "bytes32"
        },
        {
          "indexed": false,
          "name": "tour",
          "type": "bytes32"
        },
        {
          "indexed": false,
          "name": "five",
          "type": "bytes32"
        },
        {
          "indexed": false,
          "name": "six",
          "type": "bytes32"
        },
        {
          "indexed": false,
          "name": "seven",
          "type": "bytes32"
        }
      ],
      "name": "LogFleet",
      "type": "event"
    },
    {
      "anonymous": false,
      "inputs": [
        {
          "indexed": false,
          "name": "a",
          "type": "bytes"
        }
      ],
      "name": "Log",
      "type": "event"
    },
    {
      "anonymous": false,
      "inputs": [
        {
          "indexed": false,
          "name": "a",
          "type": "uint256"
        }
      ],
      "name": "Log",
      "type": "event"
    },
    {
      "anonymous": false,
      "inputs": [
        {
          "indexed": false,
          "name": "a",
          "type": "bytes32"
        }
      ],
      "name": "Log",
      "type": "event"
    },
    {
      "anonymous": false,
      "inputs": [
        {
          "indexed": false,
          "name": "a",
          "type": "bytes32"
        },
        {
          "indexed": false,
          "name": "m",
          "type": "uint8"
        }
      ],
      "name": "Log",
      "type": "event"
    },
    {
      "anonymous": false,
      "inputs": [
        {
          "indexed": false,
          "name": "a",
          "type": "bytes"
        },
        {
          "indexed": false,
          "name": "b",
          "type": "bytes32"
        },
        {
          "indexed": false,
          "name": "c",
          "type": "bytes32"
        }
      ],
      "name": "Log",
      "type": "event"
    },
    {
      "anonymous": false,
      "inputs": [
        {
          "indexed": false,
          "name": "a",
          "type": "uint256"
        },
        {
          "indexed": false,
          "name": "b",
          "type": "uint256"
        },
        {
          "indexed": false,
          "name": "c",
          "type": "uint256"
        }
      ],
      "name": "Log",
      "type": "event"
    },
    {
      "anonymous": false,
      "inputs": [
        {
          "indexed": false,
          "name": "a",
          "type": "bool"
        }
      ],
      "name": "Log",
      "type": "event"
    },
    {
      "anonymous": false,
      "inputs": [
        {
          "indexed": false,
          "name": "a",
          "type": "bytes32[17]"
        }
      ],
      "name": "Log",
      "type": "event"
    },
    {
      "anonymous": false,
      "inputs": [
        {
          "indexed": false,
          "name": "addr",
          "type": "address"
        },
        {
          "indexed": false,
          "name": "n",
          "type": "uint8"
        },
        {
          "indexed": false,
          "name": "mr",
          "type": "bytes32"
        },
        {
          "indexed": false,
          "name": "f",
          "type": "bytes"
        }
      ],
      "name": "PlayerInit",
      "type": "event"
    },
    {
      "anonymous": false,
      "inputs": [
        {
          "indexed": false,
          "name": "addr",
          "type": "address"
        },
        {
          "indexed": false,
          "name": "n",
          "type": "uint8"
        },
        {
          "indexed": false,
          "name": "mr",
          "type": "bytes32"
        },
        {
          "indexed": false,
          "name": "f",
          "type": "bytes32[17]"
        }
      ],
      "name": "PlayerInit",
      "type": "event"
    },
    {
      "anonymous": false,
      "inputs": [
        {
          "indexed": false,
          "name": "cell",
          "type": "uint256"
        },
        {
          "indexed": false,
          "name": "nextPlayer",
          "type": "address"
        },
        {
          "indexed": false,
          "name": "t",
          "type": "uint8"
        },
        {
          "indexed": false,
          "name": "b",
          "type": "bool"
        },
        {
          "indexed": false,
          "name": "c",
          "type": "bytes32"
        }
      ],
      "name": "NextMove",
      "type": "event"
    },
    {
      "anonymous": false,
      "inputs": [
        {
          "indexed": false,
          "name": "cell",
          "type": "uint256"
        },
        {
          "indexed": false,
          "name": "proof",
          "type": "bool"
        }
      ],
      "name": "hasHit",
      "type": "event"
    },
    {
      "anonymous": false,
      "inputs": [
        {
          "indexed": false,
          "name": "proof",
          "type": "bytes"
        },
        {
          "indexed": false,
          "name": "root",
          "type": "bytes32"
        },
        {
          "indexed": false,
          "name": "cell",
          "type": "uint256"
        },
        {
          "indexed": false,
          "name": "nonce",
          "type": "bytes32"
        },
        {
          "indexed": false,
          "name": "commitment",
          "type": "bytes32"
        },
        {
          "indexed": false,
          "name": "player",
          "type": "address"
        }
      ],
      "name": "isCheating",
      "type": "event"
    }
  ],
  "bytecode": "0x60606040526000604b60006101000a81548160ff021916908360ff1602179055506002604b60026101000a81548160ff021916908360ff160217905550341561004757600080fd5b611506806100566000396000f30060606040526004361061006d576000357c0100000000000000000000000000000000000000000000000000000000900463ffffffff168063235f4841146100725780632572cd6e14610087578063b61cefe6146100dc578063c6cb96aa1461013b578063c8e432d614610173575b600080fd5b341561007d57600080fd5b6100856101c5565b005b341561009257600080fd5b61009a61027f565b604051808273ffffffffffffffffffffffffffffffffffffffff1673ffffffffffffffffffffffffffffffffffffffff16815260200191505060405180910390f35b34156100e757600080fd5b610121600480803560ff169060200190919080356000191690602001909190803590602001908201803590602001919091929050506102ce565b604051808215151515815260200191505060405180910390f35b61017160048080356000191690602001909190803590602001908201803590602001919091929080610220019091905050610731565b005b341561017e57600080fd5b6101a460048080356000191690602001909190803560ff16906020019091905050610d16565b60405180831515151581526020018281526020019250505060405180910390f35b60003373ffffffffffffffffffffffffffffffffffffffff166000806002811015156101ed57fe5b6025020160240160019054906101000a900473ffffffffffffffffffffffffffffffffffffffff1673ffffffffffffffffffffffffffffffffffffffff1614610249576000600160028110151561024057fe5b6025020161025d565b60008060028110151561025857fe5b602502015b905060018160240160156101000a81548160ff02191690831515021790555050565b600080604b60019054906101000a900460ff1660ff166002811015156102a157fe5b6025020160240160019054906101000a900473ffffffffffffffffffffffffffffffffffffffff16905090565b600080600080338073ffffffffffffffffffffffffffffffffffffffff166000604b60019054906101000a900460ff1660ff1660028110151561030d57fe5b6025020160240160019054906101000a900473ffffffffffffffffffffffffffffffffffffffff1673ffffffffffffffffffffffffffffffffffffffff1614151561035757600080fd5b6002604b60009054906101000a900460ff1660ff1614151561037857600080fd5b6000935060009250610388610fa7565b1561039b5761039689610fc4565b6105de565b6103b4604b60029054906101000a900460ff1689610fe2565b915061041b87878080601f0160208091040260200160405190810160405280939291908181526020018383808284378201915050505050506000604b60019054906101000a900460ff1660ff1660028110151561040d57fe5b60250201600001548461103a565b1515610556577fe89b614f397228e5ddbc5fe187d8885b51f3cf238bd754070642f8c7235205e687876000604b60019054906101000a900460ff1660ff1660028110151561046557fe5b60250201600001548c8c876000604b60019054906101000a900460ff1660ff1660028110151561049157fe5b6025020160240160019054906101000a900473ffffffffffffffffffffffffffffffffffffffff16604051808060200187600019166000191681526020018660ff168152602001856000191660001916815260200184600019166000191681526020018373ffffffffffffffffffffffffffffffffffffffff1673ffffffffffffffffffffffffffffffffffffffff168152602001828103825289898281815260200192508082843782019150509850505050505050505060405180910390a16105dd565b61056f82604b60029054906101000a900460ff16610d16565b809450819550505061058089610fc4565b7f38797b189f8fcca19a8584f8e2b27aa01e3df12fc134242bcd02789670aff65d82604b60029054906101000a900460ff166040518083600019166000191681526020018260ff1660ff1681526020019250505060405180910390a15b5b6002604b600181819054906101000a900460ff1660010191906101000a81548160ff021916908360ff160217905560ff1681151561061857fe5b06604b60016101000a81548160ff021916908360ff1602179055507f93792e19e59face5e44223c085e903746e97e4407ae1d22c5c539db139ee4bda896000604b60019054906101000a900460ff1660ff1660028110151561067657fe5b6025020160240160019054906101000a900473ffffffffffffffffffffffffffffffffffffffff16604b60019054906101000a900460ff168786604051808660ff1681526020018573ffffffffffffffffffffffffffffffffffffffff1673ffffffffffffffffffffffffffffffffffffffff1681526020018460ff1660ff1681526020018315151515815260200182600019166000191681526020019550505050505060405180910390a183945050505050949350505050565b8383838080601f016020809104026020016040519081016040528093929190818152602001838380828437820191505050505050346002604b60009054906101000a900460ff1660ff1610151561078757600080fd5b60208060ff1614151561079957600080fd5b61022082511415156107aa57600080fd5b60e060405190810160405280886000191681526020018560118060200260405190810160405280929190826011602002808284378201915050505050815260200187878080601f016020809104026020016040519081016040528093929190818152602001838380828437820191505050505050815260200161082b6110f0565b8152602001601160ff1681526020013373ffffffffffffffffffffffffffffffffffffffff168152602001600015158152506000604b60009054906101000a900460ff1660ff1660028110151561087e57fe5b60250201600082015181600001906000191690556020820151816001019060116108a9929190611335565b5060408201518160120190805190602001906108c692919061137b565b506060820151816013019060116108de9291906113fb565b5060808201518160240160006101000a81548160ff021916908360ff16021790555060a08201518160240160016101000a81548173ffffffffffffffffffffffffffffffffffffffff021916908373ffffffffffffffffffffffffffffffffffffffff16021790555060c08201518160240160156101000a81548160ff0219169083151502179055509050506109ca6000604b60009054906101000a900460ff1660ff1660028110151561098e57fe5b6025020187878080601f01602080910402602001604051908101604052809392919081815260200183838082843782019150505050505061117f565b507f32d5ab96f608074ecb7a2188938a6154ca0cb72029f98b277aa9284b9d47f5c36000604b60009054906101000a900460ff1660ff16600281101515610a0d57fe5b602502016001016000601181101515610a2257fe5b015460405180826000191660001916815260200191505060405180910390a17f32d5ab96f608074ecb7a2188938a6154ca0cb72029f98b277aa9284b9d47f5c36000604b60009054906101000a900460ff1660ff16600281101515610a8357fe5b602502016001016001601181101515610a9857fe5b015460405180826000191660001916815260200191505060405180910390a17f32d5ab96f608074ecb7a2188938a6154ca0cb72029f98b277aa9284b9d47f5c36000604b60009054906101000a900460ff1660ff16600281101515610af957fe5b602502016001016002601181101515610b0e57fe5b015460405180826000191660001916815260200191505060405180910390a17f32d5ab96f608074ecb7a2188938a6154ca0cb72029f98b277aa9284b9d47f5c36000604b60009054906101000a900460ff1660ff16600281101515610b6f57fe5b60250201600101600f601181101515610b8457fe5b015460405180826000191660001916815260200191505060405180910390a17f32d5ab96f608074ecb7a2188938a6154ca0cb72029f98b277aa9284b9d47f5c36000604b60009054906101000a900460ff1660ff16600281101515610be557fe5b602502016001016010601181101515610bfa57fe5b015460405180826000191660001916815260200191505060405180910390a1604b600081819054906101000a900460ff168092919060010191906101000a81548160ff021916908360ff1602179055505034604a600082825401925050819055507fee9289ad2a6f2176b7eb578c42c06d31016112dea1246558f29a12b0d86a3b5333604b60009054906101000a900460ff16898989604051808673ffffffffffffffffffffffffffffffffffffffff1673ffffffffffffffffffffffffffffffffffffffff1681526020018560ff1660ff16815260200184600019166000191681526020018060200182810382528484828181526020019250808284378201915050965050505050505060405180910390a150505050505050565b6000806000803373ffffffffffffffffffffffffffffffffffffffff16600080600281101515610d4257fe5b6025020160240160019054906101000a900473ffffffffffffffffffffffffffffffffffffffff1673ffffffffffffffffffffffffffffffffffffffff1614610d9e5760006001600281101515610d9557fe5b60250201610db2565b600080600281101515610dad57fe5b602502015b9150600090505b601181111515610f93577f32d5ab96f608074ecb7a2188938a6154ca0cb72029f98b277aa9284b9d47f5c38660405180826000191660001916815260200191505060405180910390a17f909c57d5c6ac08245cf2a6de3900e2b868513fa59099b92b27d8db823d92df9c85604051808260ff16815260200191505060405180910390a1856040518082600019166000191681526020019150506040518091039020600019168260010182601181101515610e6f57fe5b01546040518082600019166000191681526020019150506040518091039020600019161415610f88577f32d5ab96f608074ecb7a2188938a6154ca0cb72029f98b277aa9284b9d47f5c38260010182601181101515610eca57fe5b0154604051808260001916600019168152602001915050604051809103902060405180826000191660001916815260200191505060405180910390a17f32d5ab96f608074ecb7a2188938a6154ca0cb72029f98b277aa9284b9d47f5c386604051808260001916600019168152602001915050604051809103902060405180826000191660001916815260200191505060405180910390a18460ff168260130182601181101515610f7757fe5b018190555060018193509350610f9e565b600181019050610db9565b600080809050935093505b50509250929050565b60006002604b60029054906101000a900460ff1660ff1614905090565b80604b60026101000a81548160ff021916908360ff16021790555050565b60008282604051808360ff1660ff167f01000000000000000000000000000000000000000000000000000000000000000281526001018260001916600019168152602001925050506040518091039020905092915050565b600080600080849150602090505b8651811115156110d95780870151925082600019168260001916101561109d578183604051808360001916600019168152602001826000191660001916815260200192505050604051809103902091506110ce565b8282604051808360001916600019168152602001826000191660001916815260200192505050604051809103902091505b602081019050611048565b856000191682600019161493505050509392505050565b6110f861143b565b61022060405190810160405280600081526020016000815260200160008152602001600081526020016000815260200160008152602001600081526020016000815260200160008152602001600081526020016000815260200160008152602001600081526020016000815260200160008152602001600081526020016000815250905090565b611187611464565b61118f611464565b5990506020830151600082015260408301516020820152606083015160408201526080830151606082015260a0830151608082015260c083015160a082015260e083015160c082015261010083015160e08201526101208301516101008201526101408301516101208201526101608301516101408201526101808301516101608201526101a08301516101808201526101c08301516101a08201526101e08301516101c08201526102008301516101e08201526102208301516102008201527f32d5ab96f608074ecb7a2188938a6154ca0cb72029f98b277aa9284b9d47f5c381600060118110151561127f57fe5b602002015160405180826000191660001916815260200191505060405180910390a17f32d5ab96f608074ecb7a2188938a6154ca0cb72029f98b277aa9284b9d47f5c38160106011811015156112d157fe5b602002015160405180826000191660001916815260200191505060405180910390a17f909c57d5c6ac08245cf2a6de3900e2b868513fa59099b92b27d8db823d92df9c60116040518082815260200191505060405180910390a18091505092915050565b826011810192821561136a579160200282015b82811115611369578251829060001916905591602001919060010190611348565b5b5090506113779190611490565b5090565b828054600181600116156101000203166002900490600052602060002090601f016020900481019282601f106113bc57805160ff19168380011785556113ea565b828001600101855582156113ea579182015b828111156113e95782518255916020019190600101906113ce565b5b5090506113f791906114b5565b5090565b826011810192821561142a579160200282015b8281111561142957825182559160200191906001019061140e565b5b50905061143791906114b5565b5090565b610220604051908101604052806011905b600081526020019060019003908161144c5790505090565b610220604051908101604052806011905b60008019168152602001906001900390816114755790505090565b6114b291905b808211156114ae576000816000905550600101611496565b5090565b90565b6114d791905b808211156114d35760008160009055506001016114bb565b5090565b905600a165627a7a7230582022feca4183b1dedf9b6bde72aae9b03cf5390400883b668d291f4db5de448b640029",
  "source": "pragma solidity ^0.4.0;\n\ncontract Battleship {\n\n    struct Player {\n        bytes32 cc;\n        bytes32[17] fleet;\n        bytes fleetString;\n        uint[17] fleetPlainText;\n        uint8 points;\n        address addr;\n        bool reset;\n    }\n\n    Player[2] players;\n\n    uint stake;\n    uint8 nOfPlayers = 0;\n    uint8 turn;\n    uint8 lastMove = 2;\n\n    event LogFleet(bytes32 one, bytes32 two, bytes32 three, bytes32 tour, bytes32 five, bytes32 six, bytes32 seven);\n    event Log(bytes a);\n    event Log(uint a);\n    event Log(bytes32 a);\n    event Log(bytes32 a, uint8 m);\n    event Log(bytes a, bytes32 b, bytes32 c);\n    event Log(uint a, uint b, uint c);\n    event Log(bool a);\n    event Log(bytes32[17] a);\n\n    event PlayerInit(address addr, uint8 n, bytes32 mr, bytes f);\n    event PlayerInit(address addr, uint8 n, bytes32 mr, bytes32[17] f);\n    event NextMove(uint cell, address nextPlayer, uint8 t, bool b, bytes32 c);\n    event hasHit(uint cell, bool proof);\n    event isCheating(bytes proof, bytes32 root, uint cell, bytes32 nonce, bytes32 commitment, address player);\n\n    modifier canJoin(bytes32 _cc, bytes _f, uint _s) {\n        // only 2 player are allowed\n        require(nOfPlayers < 2);\n        // cc must be 32 bytes long (merkle root)\n        require(_cc.length == 32);\n        // fleet commitment must be 576 bytes long\n        require(_f.length == 544);\n        // check if there are enough money at stake\n        /*require(_s >= 100 finney);*/\n        _;\n    }\n\n    modifier isGameInitialized() {\n        // check if game is started\n        require(nOfPlayers == 2);\n        _;\n    }\n\n    modifier isPlayerTurn(address _addr) {\n        // check if game is started\n        require(players[turn].addr == _addr);\n        _;\n    }\n\n    modifier isValidIndex(uint8 idx) {\n        // check if idx >=0 && <= 17\n        require(idx >= 0 && idx <= 17);\n        _;\n    }\n\n    function getPlayerTurn() public view returns(address) {\n      return players[turn].addr;\n    }\n\n    function initPlayer(bytes32 _cc, bytes _fleet, bytes32[17] _f) canJoin(_cc, _fleet, msg.value) external payable {\n        // create a new player\n        players[nOfPlayers] = Player(_cc, _f, _fleet , newUintArray(), 17, msg.sender, false);\n\n        deserializeFleet(players[nOfPlayers], _fleet);\n\n        Log(players[nOfPlayers].fleet[0]);\n        Log(players[nOfPlayers].fleet[1]);\n        Log(players[nOfPlayers].fleet[2]);\n        Log(players[nOfPlayers].fleet[15]);\n        Log(players[nOfPlayers].fleet[16]);\n\n\n        // increment the players counter\n        nOfPlayers++;\n\n        // add eth sended as prize pool\n        stake += msg.value;\n        // send event\n        PlayerInit(msg.sender, nOfPlayers, _cc, _fleet);\n    }\n\n    function newUintArray() internal pure returns(uint[17]) {\n        return [uint(0), uint(0), uint(0), uint(0), uint(0), uint(0), uint(0), uint(0), uint(0), uint(0),\n        uint(0), uint(0), uint(0), uint(0), uint(0), uint(0), uint(0)];\n    }\n\n    function newBytes32Array() internal pure returns(bytes32[17]) {\n        return [bytes32(0), 0, 0, 0, 0, 0, 0, 0, 0, 0, 0, 0, 0, 0, 0, 0, 0];\n    }\n\n    function deserializeFleet(Player storage p, bytes fleet) internal returns (bytes32[17]) {\n        // fleet is a string of 18 concatenated commitments of 32 bytes, split and store\n\n        bytes32[17] memory f;\n\n        assembly {\n            f := msize()\n            mstore(add(f, 0x00), mload(add(fleet, 0x20)))\n            mstore(add(f, 0x20), mload(add(fleet, 0x40)))\n            mstore(add(f, 0x40), mload(add(fleet, 0x60)))\n            mstore(add(f, 0x60), mload(add(fleet, 0x80)))\n            mstore(add(f, 0x80), mload(add(fleet, 0xA0)))\n            mstore(add(f, 0xA0), mload(add(fleet, 0xC0)))\n            mstore(add(f, 0xC0), mload(add(fleet, 0xE0)))\n            mstore(add(f, 0xE0), mload(add(fleet, 0x100)))\n            mstore(add(f, 0x100), mload(add(fleet, 0x120)))\n            mstore(add(f, 0x120), mload(add(fleet, 0x140)))\n            mstore(add(f, 0x140), mload(add(fleet, 0x160)))\n            mstore(add(f, 0x160), mload(add(fleet, 0x180)))\n            mstore(add(f, 0x180), mload(add(fleet, 0x1A0)))\n            mstore(add(f, 0x1A0), mload(add(fleet, 0x1C0)))\n            mstore(add(f, 0x1C0), mload(add(fleet, 0x1E0)))\n            mstore(add(f, 0x1E0), mload(add(fleet, 0x200)))\n            mstore(add(f, 0x200), mload(add(fleet, 0x220)))\n        }\n        Log(f[0]);\n        Log(f[16]);\n\n        Log(f.length);\n\n        // for (uint256 i = 0; i < f.length; i++) {\n        //     p.fleet[i] = f[i];\n        // }\n\n        return f;\n    }\n\n    function play(uint8 cell, bytes32 nonce, bytes proof) isPlayerTurn(msg.sender) isGameInitialized() external returns(bool) {\n        bool hit = false;\n        uint256 index = 0;\n        bytes32 commitment;\n        if(isFirstTurn()) {\n            updateLastMove(cell);\n        } else {\n            commitment = computeCellCommitment(lastMove, nonce);\n            // TODO: if trying to cheat send money to the other player\n            if(!checkProof(proof, players[turn].cc, commitment)) {\n            //     transferPrizePool();\n                isCheating(proof, players[turn].cc, cell, nonce, commitment, players[turn].addr);\n            //     // TODO: finish game\n            } else {\n            //     Log(commitment);\n            //     // check if a ship has been hit\n                (hit, index) = isHit(commitment, lastMove);\n            //     // send event with hit result\n                // hasHit(lastMove, hit);\n            //     // TODO: check if ships cells are adjacent\n            //     // if(hit) areCellsAdjacent(index);\n            //     // update lastMove\n            updateLastMove(cell);\n            Log(commitment, lastMove);\n            }\n        }\n\n        // change turn;\n        turn = ++turn % 2;\n        // event\n        NextMove(cell, players[turn].addr, turn, hit, commitment);\n        return hit;\n    }\n\n    // TODO: implement\n    // function areCellsAdjacent(uint8 index) isValidIndex(index) internal view returns(bool) {\n    //     if(index >= 0 && index <= 4) checkShipCellsAdjacent(0, 5);\n    //     else if(index >= 5 && index <= 8) checkShipCellsAdjacent(5, 9);\n    //     else if(index >= 9 && index <= 11) checkShipCellsAdjacent(9, 12);\n    //     else if(index >= 12 && index <= 14) checkShipCellsAdjacent(12, 15);\n    //     else checkShipCellsAdjacent(15, 17);\n    // }\n\n    // function checkShipCellsAdjacent(uint8 start, uint8 end) internal view returns(uint8) {\n    //     // check if its vertifical of horizontal\n    //     // 0 dont know, 1 horizontal, 2 vertical\n    //     Player storage p = players[0].addr == msg.sender ? players[0] : players[1];\n    //     uint8 direction = 0;\n    //     bytes32 pivot = bytes32(0);\n    //     bytes32 empty = keccak256(uint8(0));\n    //     for (uint8 i = start; i <= end; i += 1) {\n    //         if(keccak256(pivot) == empty && p.fleetPlainText[i] != empty) {\n    //             pivot = p.fleetPlainText[i];\n    //         } else if (keccak256(pivot) != empty && p.fleetPlainText[i] != empty && direction == 0) {\n    //           // convert pivot to uint\n    //           // if pivot + 1*i == cell --> direction = 1\n    //           // if pivot + 10*i == cell --> direction = 10\n    //         } else {\n\n    //         }\n\n    //     }\n    // }\n\n    function isHit(bytes32 commitment, uint8 cell) public returns(bool, uint256){\n        // bytes32 el;\n\n        Player storage p = players[0].addr == msg.sender ? players[0] : players[1];\n        for (uint256 i = 0; i <= p.fleet.length; i += 1) {\n            Log(commitment);\n            Log(cell);\n\n            if(keccak256(p.fleet[i]) == keccak256(commitment)) {\n                // keep track of the cell by index\n                Log(keccak256(p.fleet[i]));\n                Log(keccak256(commitment));\n                p.fleetPlainText[i] = cell;\n                return (true, i);\n            }\n        }\n        return (false, 0);\n    }\n\n    function isFirstTurn() internal view returns(bool) {\n        return lastMove == 2;\n    }\n\n    function computeCellCommitment(uint8 cell, bytes32 nonce) internal pure returns(bytes32) {\n        return keccak256(cell, nonce);\n    }\n\n    function updateLastMove(uint8 cell) internal {\n        lastMove = cell;\n    }\n\n    function transferPrizePool() internal {\n        // get the other player\n        Player storage p = players[0].addr == msg.sender ? players[1] : players[0];\n        // send stake\n        p.addr.transfer(stake);\n    }\n\n    // https://github.com/ameensol/merkle-tree-solidity\n    function checkProof(bytes proof, bytes32 root, bytes32 hash) pure internal returns (bool) {\n        bytes32 el;\n        bytes32 h = hash;\n\n        for (uint256 i = 32; i <= proof.length; i += 32) {\n            assembly {\n                el := mload(add(proof, i))\n            }\n\n            if (h < el) {\n                h = keccak256(h, el);\n            } else {\n                h = keccak256(el, h);\n            }\n        }\n\n        return h == root;\n    }\n\n    function signalReset() external {\n        Player storage p = players[0].addr == msg.sender ? players[0] : players[1];\n        p.reset = true;\n    }\n\n    function resetGame() internal {\n        // reset only if both player agree OR either one won\n        if(arePlayersResetting() || arePlayersResetting()) revert();\n\n        // delete old players statuses\n        delete players[0];\n        delete players[1];\n        // reset player counter\n        nOfPlayers = 0;\n        // reset turn\n        turn = 0;\n    }\n\n    function isGameEnded() internal view returns(bool){\n        return players[0].points == 0 || players[1].points == 0;\n    }\n\n    function arePlayersResetting() internal view returns(bool) {\n        return !players[0].reset || !players[1].reset;\n    }\n}\n",
  "sourcePath": "/Users/fraccaman/Desktop/ethereum-petshop-demo-master 2/contracts/Battleship.sol",
  "compiler": {
    "name": "solc",
    "version": "0.4.18+commit.9cf6e910.Emscripten.clang"
  },
  "schemaVersion": "1.0.1",
  "updatedAt": "2017-12-20T23:14:55.990Z"
}